:04000000020039328F
:01000B0032C2
:0100130032BA
:01001B0032B2
:0100230032AA
:01002B0032A2
:030033000200D2F6
:20009200E4F508F509F50AF50BF50CF50DF50EF50FF510F511F512F513F514F515F516F539
:1500B20017F518F519F51AF51BF51CF51DF51EF51FF520F52173
:0300CF00020036F6
:030036000201DEE6
:2000D200C0E0C007C006C005C004C0D075D000C2D9850A08850B09AFFB7E00ACEBE4FDEC2C
:2000F2004EF50AED4FF50BE50AC39508F50CE50B9509F50DD0D0D004D005D006D007D0E0DF
:2001120032AE82AF837C007D00C3EC9404ED648094805024EC2CFAED33EA2412F98C030BBB
:20013200EB2B2412F8860208860318A70209A703190CBC00D40D80D18E1A8F1B7E007F007A
:20015200C3EE9405EF64809480504FEE2EFCEF33EC2412F9878209878319C007C006120A8A
:2001720011AA82AB83ACF0FDC002C003C004C005851E82851F838520F0E5211205808582D6
:200192001E85831F85F020F521E58124FCF581D006D0070EBE00A90F80A6E4C0E0C0E07472
:2001B200A0C0E07440C0E0851E82851F838520F0E521121234AC82AD83AEF0FFE58124FCD9
:2001D200F5818C828D838EF0EF020A1E1206EBAEDA4306428EDA75F90075E900AEA84306F9
:2001F200C08EA8AEDB4306318EDBAED87F004306408ED81207F8850E82850F8312011385AF
:20021200A010751100E510C3950EF522E511950FF523852282852383120A11AA82AB83ACEB
:20023200F0FDC002C003C004C00590999A75F099743E12047CAA82AB83ACF0FDE58124FC33
:20025200F581E522C3951CF582E523951DF583C005C004C003C002120A11A882A983AEF0C3
:20027200FFC000C001C006C00790CCCD75F0CC743D12047CA882A983AEF0FFE58124FCF554
:2002920081D002D003D004D005C000C001C006C0078A828B838CF0ED120580AC82AD83AE49
:2002B200F0FFE58124FCF581C004C005C006C00790000075F080744312047CAC82AD83AE61
:2002D200F0FFE58124FCF58174E1C0E074FAC0E0748BC0E07443C0E08C828D838EF0EF128B
:2002F2001234AC82AD83AEF0FFE58124FCF581C004C005C006C00790000075F0807443125B
:200312000471AC82AD83AEF0FFE58124FCF5818C828D838EF0EF120A1EAF82AEFAEF2EF5AF
:20033200FAE50C450D6060850C82850D83120A11AC82AD83AEF0FFC004C005C006C00790B8
:20035200A88275F07B743A12047CAC82AD83AEF0FFE58124FCF581C004C005C006C00790A4
:20037200000075F0707442121234AC82AD83AEF0FFE58124FCF5818C828D838EF0EF120AEA
:200392001E85820E85830F85221C85231DC00EC00F74C6C0E07414C0E07480C0E07424C0EE
:2003B200E07400C0E07440C0E0120686E58124F8F5817582001208179014C975F0801207BA
:2003D200C075820412081790002475F0401207C0C010C01174C6C0E07414C0E07480C0E0B6
:2003F2007424C0E07400C0E07440C0E0120686E58124F8F5817582081208179014CE75F0AE
:20041200801207C075820C12081790002475F0401207C0C022C02374C6C0E07414C0E074D0
:2004320080C0E07424C0E07400C0E07440C0E0120686E58124F8F581758210120817901478
:1F045200D375F0801207C075821612081790002475F0401207C09086A01206D4020205DF
:1414C60025640052504D3A004558503A004552524F523A0075
:0B047100A8811818C6B2E7C60205807B
:20047C0012051FBC0003020A73EF60FA30D502B2D1E583B4FF03020A89E582B4FF03020A3D
:20049C0089258340072482400B020A732483145003020A89F582EA8DF0A4A8F0EA8EF0A48F
:2004BC0028F8E435F0F9EB8DF0A428E935F0F9E433CA8FF0A429F9EA35F0FAEBF88EF0A48F
:2004DC0029F9EA35F0FAE433FBEC8DF0A429F9EA35F0FAE43BFBE88FF0A42AFAEB35F0FB37
:2004FC00E433CCFD8EF0A42AFAEB35F0FBE43CFCED8FF0A42BFBEC35F0FC20E70312054DE2
:03051C00020A527E
:20051F00AA82AB83A2F73392D1F5826002D2F7ACF0E58124F9F8E6FD08E6FE0886F008E63F
:0E053F00A2F73392D5F5836002D2F7AFF02217
:06006800E478FFF6D8FD6C
:20054D007804EC7011E58224F8500AF582E4C9CACBFCD8EF22EC7820058220E713D58201AD
:13056D0022C3E933F9EA33FAEB33FBEC33FCD8EA158222BB
:200046007900E94400601B7A009014E5780175A000E493F2A308B8000205A0D9F4DAF27567
:02006600A0FFF9
:20006E007800E84400600A790175A000E4F309D8FC7800E84400600C7900900001E4F0A390
:04008E00D8FCD9FAC7
:2005800012051F7900E583B58202800D5003121202E583C395821213A5E5D0C465D020E14A
:2005A00017EA2DFAEB3EFBEC3FFC500974011213A5EC4480FC020A52C3EA9DFAEB9EFBEC72
:1905C0009FFC500FC3E499F9E49AFAE49BFBE49CFCB2D112054D020A523C
:2005D900C046858146C082058105810581E54624FBF8A9460909E6F70809E6F70809E6F7E0
:2005F900A846080886820886830886F01212F7FAA31212F7FBA31212F7FF74012AFCE43B08
:20061900FD8F06A846080886820886830886F0EC121459A3ED121459A3EE1214598A828B79
:20063900838FF0A84608E6121459854681D0462285823885833985F03A7554387555007551
:20065900564085345785355885365985375A9005D9120B45AE82AF83AB38AC39AD3A8B82B1
:200679008C838DF0E41214598E828F8322C046858146E54624F8FF8F5AE54624FBFF8F5481
:20069900755500755640E54624F8F886570886580886599005D9120B45AE82AF83E5462402
:1B06B900FBF886030886040886058B828C838DF0E41214598E828F83D046222F
:0800C700753E00E4F53FF54031
:2006D400AE82AF837C007D00C3EC9EED9F50070CBC00F50D80F222C2C0C2C1758030D2C25F
:2006F40090012C1206D4C2C29000641206D4D2C290012C1206D4C2C29000641206D4D2C2A4
:2007140090012C1206D4C2C29000641206D4758038D2C29000641206D4C2C2900064120687
:20073400D4758008D2C290012C1206D4C2C29000641206D4758001D2C290012C1206D4C23E
:20075400C29000641206D4758006D2C290012C1206D4C2C29000641206D475800CD2C29022
:20077400012C1206D4C2C29000641206D4753B0022AF827410B53B0C758210C00712081766
:20079400D007800F7420B53B0A758200C007120817D007D2C0C2C18F80D2C29000321206F9
:2007B400D4C2C29000321206D4053B22AD82AE83AFF0753C00E53C2DFAE43EFB8F048A8209
:2007D4008B838CF01212F7FC60198C82C007C006C005120785D005D006D007053C74E025B1
:2007F4003C50D222C2C0C2C1758001D2C29000321206D4C2C29000641206D4753B0022856D
:200814003B8222E582FF24DF403E8F3B74F0253B401BAF3B74802FF580C2C0C2C1D2C2906A
:2008340000641206D4C2C29000320206D4AF3B74B02FF580C2C0C2C1D2C29000641206D407
:20085400C2C29000320206D4227401253E4004053E80F6D2A0D2A1D2A2D2A3753D0DC2A07C
:2008740020A403753D0120A503753D0220A603753D03D2A0C2A120A403753D0420A5037561
:200894003D0520A603753D06D2A1C2A220A403753D0720A503753D0820A603753D09D2A2B0
:2008B400C2A320A403753D0A20A503753D0020A603753D0CD2A3853D8222AEF64306018EE4
:2008D400F675F320AEF34306088EF3E5F3E470FB53F3EFAEF57F00EE2EFEEF33FFEE2EFE40
:2008F400EF33FFACF47D00EC2EF53FED3FF540853F8285408322AE82AF83AC894304208CBD
:200914008953892FC29FD29EAC874304808C878E6F8F7075710075720090F424E4F5F01205
:200934001474AC82C3E49CFC8C8DD29CD28E2285829910990280FB22AD82AE83AFF07C0042
:20095400EC2DF9E43EFA8F0389828A838BF01212F7FB60188B82C007C006C005C004120964
:2009740043D004D005D006D0070C80D475820D12094375820A0209433098FD859982C298FA
:200994002285824385834485F0457C007B008B017A00C3E99541EA64808542F063F0809565
:2009B400F05044C004C00312098CAA82D003D004BA0D028003BA0A16EC2543F8E43544F9D6
:2009D400AF45888289838FF0E41214598019EB2543FDE43544FEAF458D828E838FF0EA1244
:1D09F40014590B8B0480A7E5412543FDE5423544FEAF458D828E838FF0E4021459A9
:0D0A1100AC83AB827A007900748E02131C56
:200A1E001213E8700AE582458345F0700122E430D112F4700BE5F0F47006E58330E70122F3
:140A3E0090800022700AE5F07006E58320E70122907FFF22EB
:200A5200B98003EA13B34010EA2401FAE43BFBE43CFC50047C800582BC000EBB000BBA00E8
:200A720008E4F5F0F583F58222A2D1E582138CF092F78B838A8222E4F583F58275F080F4A8
:0F0A9200A2D11322E4F583F58275F0C0747F22A0
:200AA100AF82C04AC04BC04C120AAE8007C048C0498F82221581158115810552E4B5520248
:200AC100055322AF8274302FFF24C6501174072FFFE54760098F057E004305208D078F82F0
:200AE100020AA1E582FFC4540FF582C007120AC4D007740F5FF582020AC485826FAB4DAC83
:200B01004EAD4FAE50AA517571208A07EF2FF570EE2354014570FAEB2BFBEC33FCED33FD19
:200B2100EE33FEC3EA956F4008EAC3956FFA430301E57114FF8F7170D18B4D8C4E8D4F8EE4
:200B4100508A512285824885834985544A85554B85564CE4F552F553AD57AE58AF598D82A4
:200B61008E838FF01212F7FC74012DF557E43EF5588F59ECFF70030211FBBF2502800302B1
:200B810011F37E007D008E5B8E5C7A007B008E5D7C008E5E8E64755FFF855765855866856C
:200BA10059678565828566838567F01212F7F568A385826585836685655785665885675900
:200BC1007425B56808856882120AA1808B74D025685039E56824C6403374FFB55F1AE56431
:200BE100F56975F00AA4F569E568F56A256924D0F56470AE7D0180AAE55F75F00AA4F56A22
:200C0100E568F569256A24D0F55F8096742EB5680A74FFB55F8C755F008087749F25685094
:200C21000EE568248540085368DF75470180037547007420B56803020CCE742BB568030280
:200C41000CC8742DB5680280797442B56803020CD47443B56803020CDF7444B56803020EA2
:200C6100F07446B56803020F067448B56803020BA37449B56803020EF0744AB56803020B3E
:200C8100A3744CB568028050744FB56803020EF77450B56803020E3B7453B5680280767498
:200CA10054B56803020BA37455B56803020EFC7458B56803020F01745AB56803020BA3027C
:200CC1000F0A7E01020BA3755B01020BA3755C01020BA37B01020BA3755D01020BA3EB60CE
:200CE1000AE55A14F9895A876A800DE55A24FEF56985695AA969876A856A82C006C005C076
:200D010004C003C002120AA1D002D003D004D005D006020F29E55A24FDF56A856A5AA96A13
:200D21008765098766098767191985654D85664E85674F8565828566838567F0C006C005BB
:200D4100C004C003C00212121C858265858366D002D003D004D005D00685656A74FFB55F30
:200D610003856A5FEE7036C3E56A9564502FE564C3956AF5698569651569E565601C75820C
:200D810020C006C005C004C003C002120AA1D002D003D004D005D00680DB856964855F6983
:200DA100854D82854E83854FF01212F7F56585656160488569651569C374808565F063F0A7
:200DC1008095F05036856182C006C005C004C003C002120AA1D002D003D004D005D00685E5
:200DE1004D65854E66854F670565E4B56502056685654D85664E85674F80A5EE7003020FB5
:200E010029C3E56A95644003020F29E564C3956AF56A856A69156AE5697003020F267582F0
:200E210020C006C005C004C003C002120AA1D002D003D004D005D00680D8E55A24FDF569C6
:200E410085695AA9698765098766098767191985654D85664E85674F854F62748025625080
:200E610005756943801974A025625005756950800E74C02562500575694980037569588591
:200E81006982C006C005C004C003C002120AA175823A120AA1758230120AA1758278120A78
:200EA100A1D002D003D004D005D0067449B5690280217450B56902801A854E82C006C00590
:200EC100C004C003C002120AE4D002D003D004D005D006854D82C006C005C004C003C0027C
:200EE100120AE4D002D003D004D005D00680397A01755E0A8032755E08802D755E0A8028FD
:200F0100755E1080237C01801F856882C006C005C004C003C002120AA1D002D003D004D0E5
:200F210005D0068003856A64EC6068E55A24FCFC8C5A8C01876B09876C09876D09876E197B
:200F41001919856B4D856C4E856D4F856E50754DDA754E14754F80854D6B854E6C854F6DEA
:200F61007401256BF565E4356CF566856D6785654D85664E85674F856B82856C83856DF065
:200F81001212F7FC8C6B7003020B59856B82120AA180C4E55E7003020B59EB603FE55A14FD
:200FA100F9895A87048C6B756C00756D00756E00856B4D856C4E856D4F856E50EA600302DD
:200FC1001046854D6B756C00756D00756E00856B4D856C4E856D4F856E508069E55D602527
:200FE100E55A24FCFC8C5A8C01876B09876C09876D09876E191919856B4D856C4E856D4F31
:20100100856E508040E55A24FEFC8C5A8C018703098704198B6BECF56C3395E0F56DF56E15
:20102100856B4D856C4E856D4F856E50EA7016854D6B854E6CF56DF56E856B4D856C4E85FD
:201041006D4F856E50EA602AE55030E723C3E4954DF56BE4954EF56CE4954FF56DE49550A9
:20106100F56E856B4D856C4E856D4F856E5080027A007C0179787B00755100855E82C00636
:20108100C005C004C003C002C001120AFBD001D002D003D004D005D006EC7010C003E5510F
:2010A100C4F56BE7456BF719D0038002A7510BECB40100E433FCE54D454E454F455070B842
:2010C10089638B60E5647003756401ED702CEE702985646BAB600BC3EB956B501A758220F9
:2010E100C006C005C004C002120AA1D002D004D005D006156B80DD856B64EA601675822D1B
:20110100C006C005C004120AA1D004D005D00615648036E5606032E55B601675822BC0069F
:20112100C005C004120AA1D004D005D00615648018E55C6014758220C006C005C004120AA1
:20114100A1D004D005D0061564EE7034AB648B021BC3E5609A503CED6008756B30756C0038
:201161008006756B20756C00856B82C006C005C004C003120AA1D003D004D005D00680CE26
:20118100C3E56095645008E564C39560FD80067D0080028B05A963AB608B021BEA6036ECB7
:2011A100B40100E433FC700A09E7C4540FFA8A5180078702740F5AF551855182C006C005EA
:2011C100C004C003C001120AC4D001D003D004D005D00680C4EE7003020B598D068E051E74
:2011E100ED7003020B59758220C006120AA1D00680EB8F82120AA1020B5985528285538365
:0112010022CA
:0B14DA003C4E4F20464C4F41543E005A
:1A120200E582C583F582A2D133A2D592D11392D5ECCFFCEBCEFBEACDFA2274
:18121C00AA82AB831212F76003A380F8C3E5829AF582E5839BF58322EF
:2012340012051F30D502B2D1BF0009BC0003020A96020A89BC0003020A73E583B4FF0BE5D3
:2012540082B4FF03020A96020A73E582B4FF03020A89C395835007247F400B020A7324802C
:20127400145003020A89F582C3ED9AEE9BEF9C40111582C3EA33F9EB33FAEC33FBE433FC83
:201294008005E4CCCBCAF9C08275F019C3E99DEA9EEB9FEC9400D5F002802D400EE99DF99B
:2012B400EA9EFAEB9FFBEC9400FCC3B3E833F8E58233F582E58333F583C3E933F9EA33FAFB
:2012D400EB33FBEC33FC80C4B3E4F938FAE43582FBE43583FCD082500405827C8012054D05
:0312F400020A6A81
:0D003900758178121443E5826003020036E1
:1C12F70020F71430F6148883A88220F507E6A88375830022E280F7E49322E02206
:20131300FCABF0AA83A982749EF582C2D1EC30E716D2D1E9F42401F9EAF43400FAEBF434D9
:0D13330000FBECF43400FC12054D020A52E0
:20134000FB7A20E4FCFDFEFFE5822582F582E58333F583E5F033F5F0EB33FB4017DAE980E6
:2013600042E5822582F582E58333F583E5F033F5F0EB33FBEC33FCED33FDEE33FEEF33FF15
:20138000EC956FED9570EE9571EF95724013EC956FFCED9570FDEE9571FEEF9572FF4382A7
:0513A00001DABEEB22A2
:2013A5006040F82582500274FFF582E824F8501ECCCBCAF9E4CC24F85014CBCAF9E4CB2450
:2013C500F8500BCAF9E4CA24F8500379002224086010F8C3EC13FCEB13FBEA13FAE913F903
:0313E500D8F1221A
:2013E800121447C3749E9582403979001213A530D126E9F42401F582EAF43400F583EBF4C7
:201408003400F5F0ECF43400700AE582458345F0700122E430E70F22EC20E71489828A83DB
:1B1428008BF02230D10AE4F582F583F5F074802274FFF582F583F5F0747F22D7
:04144300758200228C
:12144700AA82AB83A2F73392D1F5826002D2F7ACF022AA
:1B14590020F71130F6138883A88220F509F6A8837583002280FEF280F5F02292
:20147400FBC2D530E715D2D5E4C39582F582E49583F583E495F0F5F0E49BFBE57230E717FD
:20149400B2D5E4C3956FF56FE49570F570E49571F571E49572F572EB12134030D513FBE46B
:1214B400C39582F582E49583F583E495F0F5F0E49B2272
:00000001FF
